:100000000EEF00F00000000000EF00F00000000024
:0A0010000000000000000000F3D71C
:10001C00818081820F0EC16E956A8C6A81B023D06B
:10002C00060E0B6E130E0C6EAD0E0D6E0D2EFED756
:10003C000C2EFCD70B2EFAD7000000008C04036E9C
:10004C00046A000E045A03C000F004C001F001322F
:10005C000032019E01BC018E01AE03D002E3004AC6
:10006C00012A00C08CFF81B213D0060E0B6E130E4A
:10007C000C6EAD0E0D6E0D2EFED70C2EFCD70B2E6E
:10008C00FAD7000000008C50010F006E00508C2637
:04009C00C5D7FFD7EE
:020000040030CA
:0D000100021F1EFF8381FF0FC00FE00F40A4
:00000001FF
